{
  "transactions": [
    {
      "hash": "0x432fbb8662292dc5ae0a4c74b4754fccb4c2bc179cd3dd9c6bf79df43a9386f2",
      "transactionType": "CALL",
      "contractName": null,
      "contractAddress": "0xf242cE588b030d0895C51C0730F2368680f80644",
      "function": "initialize((address,address,uint24,int24,address),uint160,bytes)",
      "arguments": [
        "(0x0CC109E58b9945577c7Ea07A429E82C0B210D41f, 0xf485Be8cE0B2f71f28424c2CEBaCCFF77D2A6Fa5, 4000, 10, 0xEc2569842C631A28E6d92C143121A10656E38044)",
        "79228162514264337593543950336",
        "0x"
      ],
      "transaction": {
        "type": "0x02",
        "from": "0x264f9ef85c21de49451c3636116668889ca41aab",
        "to": "0xf242ce588b030d0895c51c0730f2368680f80644",
        "gas": "0x12593",
        "value": "0x0",
        "data": "0x695c5bf50000000000000000000000000cc109e58b9945577c7ea07a429e82c0b210d41f000000000000000000000000f485be8ce0b2f71f28424c2cebaccff77d2a6fa50000000000000000000000000000000000000000000000000000000000000fa0000000000000000000000000000000000000000000000000000000000000000a000000000000000000000000ec2569842c631a28e6d92c143121a10656e38044000000000000000000000000000000000000000100000000000000000000000000000000000000000000000000000000000000000000000000000000000000e00000000000000000000000000000000000000000000000000000000000000000",
        "nonce": "0x99",
        "accessList": []
      },
      "additionalContracts": [],
      "isFixedGasLimit": false
    }
  ],
  "receipts": [
    {
      "transactionHash": "0x432fbb8662292dc5ae0a4c74b4754fccb4c2bc179cd3dd9c6bf79df43a9386f2",
      "transactionIndex": "0xa",
      "blockHash": "0x6c9bec718785daeb7db0132a812298f2cef7fce4a4d2c11c5fa3012376c53008",
      "blockNumber": "0x66c50c",
      "from": "0x264f9EF85C21DE49451c3636116668889Ca41aab",
      "to": "0xf242cE588b030d0895C51C0730F2368680f80644",
      "cumulativeGasUsed": "0x1b31a0",
      "gasUsed": "0xd48c",
      "contractAddress": null,
      "logs": [
        {
          "address": "0xf242cE588b030d0895C51C0730F2368680f80644",
          "topics": [
            "0xdd466e674ea557f56295e2d0218a125ea4b4f0f6f3307b95f85e6110838d6438",
            "0x2a7c6cb48c886bedc28c8997ebc3d71be48461bcd0cde4282d923c6af57c7235",
            "0x0000000000000000000000000cc109e58b9945577c7ea07a429e82c0b210d41f",
            "0x000000000000000000000000f485be8ce0b2f71f28424c2cebaccff77d2a6fa5"
          ],
          "data": "0x0000000000000000000000000000000000000000000000000000000000000fa0000000000000000000000000000000000000000000000000000000000000000a000000000000000000000000ec2569842c631a28e6d92c143121a10656e3804400000000000000000000000000000000000000010000000000000000000000000000000000000000000000000000000000000000000000000000000000000000",
          "blockHash": "0x6c9bec718785daeb7db0132a812298f2cef7fce4a4d2c11c5fa3012376c53008",
          "blockNumber": "0x66c50c",
          "transactionHash": "0x432fbb8662292dc5ae0a4c74b4754fccb4c2bc179cd3dd9c6bf79df43a9386f2",
          "transactionIndex": "0xa",
          "logIndex": "0x17",
          "removed": false
        }
      ],
      "status": "0x1",
      "logsBloom": "0x00000000000000000000000000000000000000000000000000000000000000000000000000000000000000000000000000000000000000000000000000000000000000000000000000000000000800000000000000008000000000000000400000000000000000000000000000000000000000000000000000000000000000000000000000000008000000000000000000000001000000040000000000200040000000000000000000001000000200000000000000000000000000000000000000000000000000000800000010000000008000000000000000000200000000000000000000000000000000000000000000000001000000000000000000000000",
      "type": "0x2",
      "effectiveGasPrice": "0x351ad3555"
    }
  ],
  "libraries": [],
  "pending": [],
  "returns": {},
  "timestamp": 1726950018,
  "chain": 11155111,
  "commit": "df91a81"
}