{
  "transactions": [
    {
      "hash": "0x67d1c3315b871435968cdf96238cbbc25448b9cba69fefa066b037020ac4369c",
      "transactionType": "CALL",
      "contractName": null,
      "contractAddress": "0xf242cE588b030d0895C51C0730F2368680f80644",
      "function": "initialize((address,address,uint24,int24,address),uint160,bytes)",
      "arguments": [
        "(0x0CC109E58b9945577c7Ea07A429E82C0B210D41f, 0xf485Be8cE0B2f71f28424c2CEBaCCFF77D2A6Fa5, 4000, 10, 0x5D36C030aeA5C47Fe5662efAE8D01f8cd8740044)",
        "79228162514264337593543950336",
        "0x"
      ],
      "transaction": {
        "type": "0x02",
        "from": "0x264f9ef85c21de49451c3636116668889ca41aab",
        "to": "0xf242ce588b030d0895c51c0730f2368680f80644",
        "gas": "0x12584",
        "value": "0x0",
        "data": "0x695c5bf50000000000000000000000000cc109e58b9945577c7ea07a429e82c0b210d41f000000000000000000000000f485be8ce0b2f71f28424c2cebaccff77d2a6fa50000000000000000000000000000000000000000000000000000000000000fa0000000000000000000000000000000000000000000000000000000000000000a0000000000000000000000005d36c030aea5c47fe5662efae8d01f8cd8740044000000000000000000000000000000000000000100000000000000000000000000000000000000000000000000000000000000000000000000000000000000e00000000000000000000000000000000000000000000000000000000000000000",
        "nonce": "0x97",
        "accessList": []
      },
      "additionalContracts": [],
      "isFixedGasLimit": false
    }
  ],
  "receipts": [
    {
      "transactionHash": "0x67d1c3315b871435968cdf96238cbbc25448b9cba69fefa066b037020ac4369c",
      "transactionIndex": "0x15",
      "blockHash": "0x33ff4a194ae9295a0bb67646d256978b0b1e4074a542dc97fc7d1c2307fff989",
      "blockNumber": "0x66bed6",
      "from": "0x264f9EF85C21DE49451c3636116668889Ca41aab",
      "to": "0xf242cE588b030d0895C51C0730F2368680f80644",
      "cumulativeGasUsed": "0x261b0b",
      "gasUsed": "0xd480",
      "contractAddress": null,
      "logs": [
        {
          "address": "0xf242cE588b030d0895C51C0730F2368680f80644",
          "topics": [
            "0xdd466e674ea557f56295e2d0218a125ea4b4f0f6f3307b95f85e6110838d6438",
            "0x1631846920a75f5aed74dfbb602dcfceb8fe469db6750c667454066deb57bc94",
            "0x0000000000000000000000000cc109e58b9945577c7ea07a429e82c0b210d41f",
            "0x000000000000000000000000f485be8ce0b2f71f28424c2cebaccff77d2a6fa5"
          ],
          "data": "0x0000000000000000000000000000000000000000000000000000000000000fa0000000000000000000000000000000000000000000000000000000000000000a0000000000000000000000005d36c030aea5c47fe5662efae8d01f8cd874004400000000000000000000000000000000000000010000000000000000000000000000000000000000000000000000000000000000000000000000000000000000",
          "blockHash": "0x33ff4a194ae9295a0bb67646d256978b0b1e4074a542dc97fc7d1c2307fff989",
          "blockNumber": "0x66bed6",
          "transactionHash": "0x67d1c3315b871435968cdf96238cbbc25448b9cba69fefa066b037020ac4369c",
          "transactionIndex": "0x15",
          "logIndex": "0x24",
          "removed": false
        }
      ],
      "status": "0x1",
      "logsBloom": "0x00000000000000000000000000000000000000000000000000000000000000000000000000000000000000000000100000000000000000000000000000000000000000000000000000000000000800000000000000000000000000000000000000000000000000000000000000000000000800000000000000000000000000000000000000000008000000000000000000000001000000040000000000200000000000000000000000001000000200000000000000000000000000000000000000000000000000000800000010000000008000000000000000000200000000000000000000000000000000000000000000000001000000000000001000000000",
      "type": "0x2",
      "effectiveGasPrice": "0x7206bd668"
    }
  ],
  "libraries": [],
  "pending": [],
  "returns": {},
  "timestamp": 1726926941,
  "chain": 11155111,
  "commit": "333d099"
}